:1000000012C02CC02BC02AC029C028C027C026C0BF
:1000100025C096C623C022C021C020C01FC01EC05C
:100020001DC01CC01BC011241FBECFE5D4E0DEBF25
:10003000CDBF11E0A0E6B0E0ECE3F8E102C005902E
:100040000D92A231B107D9F721E0A2E1B1E001C0E0
:100050001D92AE34B207E1F776D3EECBD1CF939AAF
:1000600082E08A95F1F700C093980895CF93C82F46
:10007000662311F0929A01C09298C0988F9A8E9A36
:100080008D9A8C9A9498959896989798CC230CF47E
:10009000949AC6FD959AC5FD969AC4FD979ADFDF9E
:1000A0009498959896989798C3FD949AC2FD959ABE
:1000B000C1FD969AC0FD979AD2DF979A969A959A23
:1000C000949ACF910895882311F0929A01C0929842
:1000D000C09A8F988E988D988C98939A82E08A9582
:1000E000F1F700C080B3881F8827881F8295807F22
:1000F000869980628599806484998068939892E05B
:100100009A95F1F700C0939A92E09A95F1F700C0A2
:1001100087998160869982608599846084998860D6
:100120009398089580E0CFDF8823E4F38AE08A95EE
:10013000F1F700C080E0C7DF0895CF93C82FF2DF4A
:1001400060E08C2F93DFCF910895611103C0805838
:10015000F4DF08958054F1DF089581E0EEDF089523
:1001600082E0EBDF0895CF93C82FDCDFCA3041F483
:10017000803410F080E001C080E48058DEDF03C0EE
:1001800061E08C2F73DFCF910895CF93DF93EC0163
:100190002196FC018081882321F0E5DF899181117E
:1001A000FCCFDF91CF910895CF93C82F8A9AB89A48
:1001B0008B9A8F9A8E9A8D9A8C9A8FEF9CE70197E3
:1001C000F1F700C00000969A979A49DF8FE097E216
:1001D0000197F1F700C0000042DF9AEA9A95F1F723
:1001E00000C03DDF8AEA8A95F1F700C0979837DFB3
:1001F0009AEA9A95F1F700C088E29FDF88E09DDFD8
:10020000ACDF86E09ADF8C2F98DFCF910895809144
:100210001E0190911F01892B39F481E090E09093A9
:100220001F0180931E0104C010921F0110921E0135
:1002300010922301109222010895811102C0C298E8
:100240000895C29A089586B1866086B93E9A379A13
:10025000369A089587B1807F87B987B1856087B95D
:10026000369A3699FECF84B195B1089580E090E03A
:100270005ED58FEC97E00197F1F700C0000085E0B4
:10028000E9DF90933101809330018FEC97E0019783
:10029000F1F700C0000085E0DDDF209130013091F2
:1002A0003101820F931F90933101809330018FECC5
:1002B00097E00197F1F700C0000085E0CBDF2091C7
:1002C000300130913101820F931F9093310180935F
:1002D00030018FEC97E00197F1F700C0000085E056
:1002E000B9DF6091300170913101860F971F9093B3
:1002F000310180933001BC017695679576956795BD
:1003000080E090E047D660932801709329018093A4
:100310002A0190932B0160932C0170932D018093FF
:100320002E0190932F010895EF92FF920F931F9348
:10033000CF93DF93CDB7DEB760970FB6F894DEBFEB
:100340000FBECDBF82E090E0909323018093220105
:1003500004DF8AE090E0FFD97C0161E080E0F5DE17
:1003600060916200709163008091640090916500DB
:10037000E5D57F936F9382E790E09F938F938E01F3
:100380000F5F1F4F1F930F9345D7C801FEDE60E03C
:1003900080E0DBDE0F900F900F900F900F900F908A
:1003A000EF20E09481F4609162007091630080918D
:1003B000640090916500C2D58AE090E0D5D98CE7C1
:1003C00090E0E3DE0FC06091620070916300809165
:1003D000640090916500B2D58AE090E0C1D98BE8C5
:1003E00090E0D3DE8FEF93ED20E3815090402040EA
:1003F000E1F700C0000010922301109222016096E4
:100400000FB6F894DEBF0FBECDBFDF91CF911F9125
:100410000F91FF90EF9008950F931F93CF93DF9369
:10042000CDB7DEB760970FB6F894DEBF0FBECDBF75
:100430008091220190912301019709F047C08DDE40
:1004400060E080E082DE8AE990E09FDE61E080E0AB
:100450007CDE8091200190912101009721F48CEAAB
:1004600090E093DE33C08130910521F481EB90E080
:100470008CDE2CC08230910581F480911E01909118
:100480001F01009721F481EC90E07FDE1FC00197EF
:10049000E9F48EEC90E079DE19C00397B9F48AE0B4
:1004A00090E059D99F938F9382E790E09F938F9329
:1004B0008E010F5F1F4F1F930F93ACD6C80165DEEF
:1004C0000F900F900F900F900F900F9060960FB6B7
:1004D000F894DEBF0FBECDBFDF91CF911F910F917A
:1004E0000895B39B39C08091220190912301009718
:1004F000B1F420E030E040EA50E460916200709195
:100500006300809164009091650043D46093620021
:1005100070936300809364009093650078C00197A6
:1005200009F075C080912001909121012091600017
:10053000309161008217930739F4109221011092D3
:100540002001B49917C069C001969093210180934E
:100550002001B49909C061C0B49B24C080912201DC
:10056000909123010197B9F480912001909121018C
:10057000009739F41092230110922201B5991AC004
:1005800008958130910511F4CFDE0CC0029709F077
:1005900041C03DDE07C081E090E09093230180934D
:1005A00022013ADFB59B41C0809122019091230145
:1005B0000097B1F420E030E040EA50E4609162003E
:1005C000709163008091640090916500E1D3609325
:1005D00062007093630080936400909365000895B7
:1005E000019719F58091200190912101009749F41C
:1005F000809160009091610090932101809320018F
:100600000895019790932101809320010895B49952
:10061000C2CFC8CFB59904C00895B599E3CF089566
:100620008091200190912101ECCF08950F931F93A9
:10063000CF93DF93CDB7DEB7A6970FB6F894DEBFA2
:100640000FBECDBF8ADD60E080E07FDD60912C01D0
:1006500070912D0180912E0190912F016AD47F938A
:100660006F938EED90E09F938F938E010F5F1F4FDE
:100670001F930F93CFD5C80188DD0F900F900F9077
:100680000F900F900F9080911E0190911F01892B68
:1006900049F060E08DE059DD8FE49EE69A8B898B0E
:1006A0001B8A0BC060E08DE050DD8FE496E69A8BEC
:1006B000898B86E690E09C8B8B8BCE01419665DD25
:1006C00061E080E042DD60916200709163008091A2
:1006D0006400909165002DD47F936F9387EE90E036
:1006E0009F938F938E010C5E1F4F1F930F9392D594
:1006F000C8014BDD61E08DE028DD6091240170913F
:100700002501809126019091270113D47F936F9347
:1007100089E790E09F938F93005F1F4F1F930F9384
:1007200079D5C80132DD0FB6F894DEBF0FBECDBF5C
:10073000A6960FB6F894DEBF0FBECDBFDF91CF9166
:100740001F910F910895CED283E087BB8CE02CDD02
:1007500004DD06DD80EF90E018DD61E080E0F5DC8F
:1007600081E091E012DD6FDDD4D28AE090E0F3D732
:100770009C0165E070E027D5892B81F412161306E1
:100780006CF4B901330F880B990B06D460936200A7
:10079000709363008093640090936500809066007E
:1007A00090906700A0906800B0906900C0906A00C7
:1007B000D0906B00E0906C00F0906D0000916E00A6
:1007C00010916F00209170003091710083E48F933D
:1007D0008AE78F931F921F921F921F921F921F9260
:1007E0001F9282E38F9342E650E064E271E08CE274
:1007F00091E0B8D08DB79EB70A960FB6F8949EBF19
:100800000FBE8DBF77D2693B7B4081059105D0F348
:1008100081E090E090931F0180931E016BD2C09005
:100820001A01D0901B01E0901C01F0901D01DC0129
:10083000CB018C199D09AE09BF094497A105B105EB
:1008400050F014DD57D260931A0170931B0180930E
:100850001C0190931D0123D14DD2C0901601D09060
:100860001701E0901801F0901901DC01CB018C19FF
:100870009D09AE09BF09C297A105B10530F180916C
:100880001E0190911F01019761F460912401709104
:10089000250180912601909127014BD3CB0147D2AE
:1008A0000BC0109224011092250110922601109283
:1008B000270180E090E03BD21DD260931601709337
:1008C0001701809318019093190160916200709153
:1008D000630080916400909165002BD36B017C01D3
:1008E00060912C0170912D0180912E0190912F012A
:1008F00020D3C61AD70A89E0C80ED11C93E1C916C5
:10090000D10418F481E099DC02C080E096DCF2D1D9
:10091000C0901201D0901301E0901401F0901501E5
:10092000DC01CB018C199D09AE09BF09843F9140C0
:10093000A105B10508F472CFD4DD80912201909118
:100940002301009711F472DE03C0019709F464DDFE
:10095000D1D160931201709313018093140190938D
:1009600015015CCF4F925F926F927F928F929F9210
:10097000AF92BF92CF92DF92EF92FF920F931F93AD
:10098000CF93DF9300D000D0CDB7DEB7FB012801B5
:1009900039016F89788D90933B0180933A01F093F0
:1009A0003701E09336015093390140933801709339
:1009B0004D0160934C01072E000C880B990BECD273
:1009C00020E030E04AE754E44CD269837A838B8399
:1009D0009C8340926E0050926F0060927000709203
:1009E0007100A70196018CD360936A0070936B002D
:1009F00080936C0090936D0029813A814B815C81DA
:100A0000C501B4012ED26093660070936700809395
:100A1000680090936900898D9A8DAB8DBC8D809311
:100A2000480190934901A0934A01B0934B018D8DE9
:100A30009E8DAF8DB8A18093400190934101A0930A
:100A40004201B093430156D1C0904C01D0904D016A
:100A50000D2C000CEE08FF08DC01CB018C199D0960
:100A6000AE09BF098093440190934501A0934601CC
:100A7000B09347010F900F900F900F90DF91CF919F
:100A80001F910F91FF90EF90DF90CF90BF90AF90AC
:100A90009F908F907F906F905F904F9008952F92CE
:100AA0003F924F925F926F927F928F929F92AF92FE
:100AB000BF92CF92DF92EF92FF920F931F93CF934B
:100AC000DF93CDB7DEB728970FB6F894DEBF0FBE21
:100AD000CDBF10D16B017C01809144019091450103
:100AE000A0914601B0914701B701A601481B590BDF
:100AF0006A0B7B0B80914C0190914D01092E000CEB
:100B0000AA0BBB0B481759076A077B0708F4D1C02B
:100B1000E0913A01F0913B01408051806280738006
:100B2000E0913801F0913901A30192016081718156
:100B3000828193812DD169837A838B839C832091D9
:100B40006A0030916B0040916C0050916D00D8D2DA
:100B5000A30192011ED168877F83182F092F30903F
:100B6000400120904101A0904201B0904301232D0B
:100B7000322D4A2D5B2DC0D21816E4F08091480129
:100B80008D83809149018E8380904A0190904B0122
:100B90002D81382F482D592D68857F81812F902FE9
:100BA0005CD188235CF48D8188878E818F83182D9A
:100BB000092D04C038862F821A2D0B2D20916E002E
:100BC00030916F00409170005091710069817A817D
:100BD0008B819C8195D228853F81412F502FD9D080
:100BE00069837A838B839C8320913C0130913D0102
:100BF00040913E0150913F01C301B201C9D0209103
:100C0000660030916700409168005091690078D289
:100C10009B01AC0169817A818B819C81B9D0162FAF
:100C20007D838983092F262F372F482F592F632D36
:100C3000722D8A2D9B2D11D18823BCF03090480154
:100C400020904901A0904A01B0904B01232D322DF4
:100C50004A2D5B2D612F7D818981902FFED08823C5
:100C600024F0312E2D80A980B02EE0913601F09134
:100C70003701832D922DAA2DBB2D80839183A283D2
:100C8000B383E0913A01F0913B0180819181A2818F
:100C9000B38180933C0190933D01A0933E01B093BA
:100CA0003F01C0924401D0924501E0924601F0928A
:100CB000470128960FB6F894DEBF0FBECDBFDF9177
:100CC000CF911F910F91FF90EF90DF90CF90BF9049
:100CD000AF909F908F907F906F905F904F903F90DC
:100CE0002F90089589B7816089BF789483B7836016
:100CF00083BF08958091320190913301A091340116
:100D0000B0913501BC01CD01660F771F881F991F77
:100D1000089587B3866087BB80E890E09BBD8ABD5D
:100D20008FB581688FBD8EB589608EBD08958F3F68
:100D3000910519F010F08FEF90E09BBD8ABD0895EA
:100D40001F920F920FB60F9211248F939F93AF9320
:100D5000BF9382B78A5F82BF809132019091330145
:100D6000A0913401B09135010196A11DB11D809370
:100D7000320190933301A0933401B0933501BF91B8
:100D8000AF919F918F910F900FBE0F901F9018956C
:100D90005058BB27AA270ED075C166D130F06BD151
:100DA00020F031F49F3F11F41EF45BC10EF4E09586
:100DB000E7FB51C1E92F77D180F3BA1762077307B8
:100DC0008407950718F071F49EF58FC10EF4E09535
:100DD0000B2EBA2FA02D0B01B90190010C01CA01F5
:100DE000A0011124FF27591B99F0593F50F4503EA0
:100DF00068F11A16F040A22F232F342F4427585F92
:100E0000F3CF469537952795A795F0405395C9F7A9
:100E10007EF41F16BA0B620B730B840BBAF0915061
:100E2000A1F0FF0FBB1F661F771F881FC2F70EC000
:100E3000BA0F621F731F841F48F4879577956795D3
:100E4000B795F7959E3F08F0B3CF9395880F08F0BC
:100E50009927EE0F979587950895D9D008F481E0EA
:100E600008950CD00FC107D140F0FED030F021F42E
:100E70005F3F19F0F0C0511139C1F3C014D198F39C
:100E80009923C9F35523B1F3951B550BBB27AA270B
:100E900062177307840738F09F5F5F4F220F331F7D
:100EA000441FAA1FA9F333D00E2E3AF0E0E830D049
:100EB00091505040E695001CCAF729D0FE2F27D04C
:100EC000660F771F881FBB1F261737074807AB071A
:100ED000B0E809F0BB0B802DBF01FF2793585F4F8F
:100EE0002AF09E3F510568F0B6C000C15F3FECF3A9
:100EF000983EDCF3869577956795B795F7959F5F54
:100F0000C9F7880F911D9695879597F90895E1E0A7
:100F1000660F771F881FBB1F621773078407BA0706
:100F200020F0621B730B840BBA0BEE1F88F7E09561
:100F3000089504D06894B111D9C00895BCD088F048
:100F40009F5790F0B92F9927B751A0F0D1F0660FB5
:100F5000771F881F991F1AF0BA95C9F712C0B130D0
:100F600081F0C3D0B1E00895C0C0672F782F8827E3
:100F7000B85F39F0B93FCCF3869577956795B3950F
:100F8000D9F73EF490958095709561957F4F8F4F7E
:100F90009F4F0895E89409C097FB3EF49095809583
:100FA000709561957F4F8F4F9F4F9923A9F0F92F2F
:100FB00096E9BB279395F695879577956795B795AD
:100FC000F111F8CFFAF4BB0F11F460FF1BC06F5F93
:100FD0007F4F8F4F9F4F16C0882311F096E911C0A5
:100FE000772321F09EE8872F762F05C0662371F0C6
:100FF00096E8862F70E060E02AF09A95660F771FDA
:10100000881FDAF7880F9695879597F90895990FB5
:101010000008550FAA0BE0E8FEEF16161706E807C2
:10102000F907C0F012161306E407F50798F0621BE3
:10103000730B840B950B39F40A2661F0232B242BB8
:10104000252B21F408950A2609F4A140A6958FEFD7
:10105000811D811D089597F99F6780E870E060E029
:1010600008959FEF80EC089500240A941616170641
:1010700018060906089500240A9412161306140689
:1010800005060895092E0394000C11F4882352F0EC
:10109000BB0F40F4BF2B11F460FF04C06F5F7F4FA4
:1010A0008F4F9F4F089557FD9058440F551F59F08B
:1010B0005F3F71F04795880F97FB991F61F09F3F45
:1010C00079F087950895121613061406551FF2CF6E
:1010D0004695F1DF08C0161617061806991FF1CFBE
:1010E00086957105610508940895E894BB276627E5
:1010F0007727CB0197F908958ADF08F48FEF0895D9
:101100000BD0C0CFB1DF28F0B6DF18F0952309F07F
:10111000A2CFA7CF1124EACFC6DFA0F3959FD1F3CA
:10112000950F50E0551F629FF001729FBB27F00D95
:10113000B11D639FAA27F00DB11DAA1F649F6627EA
:10114000B00DA11D661F829F2227B00DA11D621F39
:10115000739FB00DA11D621F839FA00D611D221FF3
:10116000749F3327A00D611D231F849F600D211DD7
:10117000822F762F6A2F11249F5750408AF0E1F07A
:1011800088234AF0EE0FFF1FBB1F661F771F881FC3
:1011900091505040A9F79E3F510570F05CCFA6CF0B
:1011A0005F3FECF3983EDCF3869577956795B795AE
:1011B000F795E7959F5FC1F7FE2B880F911D9695D8
:1011C000879597F9089597FB072E16F4009406D09B
:1011D00077FD08D00BD007FC05D03EF490958195A3
:1011E0009F4F0895709561957F4F0895AA1BBB1B73
:1011F00051E107C0AA1FBB1FA617B70710F0A61B17
:10120000B70B881F991F5A95A9F780959095BC0137
:10121000CD010895AEE0B0E0EFE0F9E0E4C20D8961
:101220001E8986E08C831A8309838FEF9FE79E8354
:101230008D83AE01475E5F4F6F89788DCE01019639
:1012400008D0EF81F885E00FF11F10822E96E4E0C0
:10125000E6C2ABE0B0E0EEE2F9E0B7C26C017B01C0
:101260008A01FC0117821682838181FFBFC1CE01F2
:1012700001963C01F6019381F70193FD859193FF5F
:1012800081917F01882309F4ADC1853239F493FD42
:10129000859193FF81917F01853221F4B60190E021
:1012A000C0D1E8CF912C212C312CFFE1F315D8F0DF
:1012B0008B3279F038F4803279F08332A1F4232D27
:1012C00020611DC08D3261F0803369F4232D2160CF
:1012D00016C0832D8260382EE32DE4603E2E2AC096
:1012E000F32DF8601DC037FC2DC020ED280F2A30EB
:1012F00040F08E32B9F436FC75C1232D2064322EB5
:1013000019C036FE06C08AE0989E200D1124922E48
:1013100011C0EAE02E9E200D1124222EF32DF06242
:101320003F2E08C08C3621F4832D8068382E02C0F1
:10133000883641F4F70193FD859193FF81917F01F8
:101340008111B3CF982F9F7D9554933028F40C5F73
:101350001F4F9FE399830DC0833631F0833771F0BF
:10136000833509F055C020C0F801808189830E5F64
:101370001F4F88248394912C530112C02801F2E05E
:101380004F0E511CF801A080B18036FE03C0692DBC
:1013900070E002C06FEF7FEFC50138D14C018201D0
:1013A000F32DFF773F2E15C0280122E0420E511C7D
:1013B000F801A080B18036FE03C0692D70E002C044
:1013C0006FEF7FEFC50117D14C01F32DF0683F2E71
:1013D000820133FC19C0822D90E088169906A0F492
:1013E000B60180E290E01DD12A94F5CFF50137FCDB
:1013F000859137FE81915F01B60190E012D12110F5
:101400002A9421E0821A91088114910479F7E1C0AD
:10141000843611F0893639F5F80137FE07C060814E
:101420007181828193810C5F1F4F08C0608171813F
:10143000072E000C880B990B0E5F1F4FF32DFF76C4
:101440003F2E97FF09C090958095709561957F4FCD
:101450008F4F9F4FF0683F2E2AE030E0A3011DD14F
:10146000882E861844C0853731F4232D2F7EB22E66
:101470002AE030E025C0932D997FB92E8F36C1F038
:1014800018F4883579F0AEC0803719F0883721F02C
:10149000A9C0E92FE061BE2EB4FE0DC0FB2DF460A3
:1014A000BF2E09C034FE0AC0292F2660B22E06C006
:1014B00028E030E005C020E130E002C020E132E069
:1014C000F801B7FE07C060817181828193810C5F52
:1014D0001F4F06C06081718180E090E00E5F1F4F5A
:1014E000A301DBD0882E8618FB2DFF773F2E36FE1A
:1014F0000DC0232D2E7FA22E891458F434FE0BC06C
:1015000032FC09C0832D8E7EA82E05C0B82CA32CDA
:1015100003C0B82C01C0B92CA4FE0FC0FE01E80D19
:10152000F11D8081803321F49A2D997EA92E09C066
:10153000A2FE06C0B394B39404C08A2D867809F045
:10154000B394A3FC10C0A0FE06C0B21480F4280C13
:10155000922C9B180DC0B21458F4B60180E290E0B2
:1015600060D0B394F8CFB21418F42B1802C0982CA2
:10157000212CA4FE0FC0B60180E390E052D0A2FE61
:1015800016C0A1FC03C088E790E002C088E590E0A7
:10159000B6010CC08A2D867851F0A1FE02C08BE204
:1015A00001C080E2A7FC8DE2B60190E03AD0891438
:1015B00030F4B60180E390E034D09A94F8CF8A9466
:1015C000F301E80DF11D8081B60190E02AD0811071
:1015D000F6CF222009F44ECEB60180E290E021D071
:1015E0002A94F7CFF6018681978102C08FEF9FEF93
:1015F0002B96E2E106C1FC0105906150704001109C
:10160000D8F7809590958E0F9F1F0895FC0161502B
:10161000704001900110D8F7809590958E0F9F1F14
:1016200008950F931F93CF93DF93FB01238121FD37
:1016300003C08FEF9FEF2CC022FF16C04681578159
:10164000248135814217530744F4A081B1819D0163
:101650002F5F3F4F318320838C93268137812F5F0B
:101660003F4F3783268314C08B01EC01FB010084BC
:10167000F185E02D0995892BE1F6D80116968D911B
:101680009C911797019617969C938E931697CE016F
:10169000DF91CF911F910F910895FA01AA27283069
:1016A00051F1203181F1E8946F936E7F6E5F7F4F2F
:1016B0008F4F9F4FAF4FB1E03ED0B4E03CD0670FAB
:1016C000781F891F9A1FA11D680F791F8A1F911DFE
:1016D000A11D6A0F711D811D911DA11D20D009F44E
:1016E00068943F912AE0269F11243019305D319390
:1016F000DEF6CF010895462F4770405D4193B3E079
:101700000FD0C9F7F6CF462F4F70405D4A3318F01F
:10171000495D31FD4052419302D0A9F7EACFB4E0D0
:10172000A6959795879577956795BA95C9F7009788
:101730006105710508959B01AC010A2E0694579529
:10174000479537952795BA95C9F7620F731F841F80
:10175000951FA01D0895A8E1B0E042E050E009C047
:101760000196272F15D013C023D0272F22C0DC01CC
:10177000CB01FC01E199FECF06C0FFBBEEBBE09AB6
:1017800031960DB20D9241505040B8F70895262F72
:10179000E199FECF9FBB8EBBE09A01970DB2021676
:1017A00031F02DBB0FB6F894E29AE19A0FBE08957E
:1017B000262FE199FECF9FBB8EBB2DBB0FB6F894B1
:1017C000E29AE19A0FBE019608952F923F924F92AE
:1017D0005F926F927F928F929F92AF92BF92CF92C1
:1017E000DF92EF92FF920F931F93CF93DF93CDB7CA
:1017F000DEB7CA1BDB0B0FB6F894DEBF0FBECDBF42
:1018000009942A88398848885F846E847D848C8412
:101810009B84AA84B984C884DF80EE80FD800C811B
:101820001B81AA81B981CE0FD11D0FB6F894DEBFFE
:0C1830000FBECDBFED010895F894FFCF6E
:10183C000300000048430000C0BF0000C03FCDCCF7
:10184C00CC3F50726720313A202569004B61796496
:10185C006564696C6469202D2031004B6179646585
:10186C0064696C6469202D203200202020202D20FA
:10187C004D454E55202D20202020200045786974A0
:10188C000050726F6772616DD5204B61796465741D
:10189C00004973D574D563D579D52041630049735C
:1018AC00D574D563D579D5204B6170617400536EB6
:1018BC00723A2569DF43005072673A2569DF4300AD
:1018CC00202020204D65726861626120202020203C
:1018DC000020202020202020202020202076302EA8
:0218EC003300C7
:00000001FF
